:020000040800F2
:10000000100400209D010008171800084F0F000879
:10001000151800081D05000811190008000000004F
:100020000000000000000000000000003B18000875
:100030001F05000800000000391800083D180008DE
:10004000B7010008B7010008B7010008B7010008B0
:10005000B7010008B7010008B7010008B7010008A0
:10006000B7010008B7010008B7010008B701000890
:10007000B7010008B7010008B7010008B701000880
:10008000B7010008B7010008B7010008B701000870
:10009000B7010008B7010008B7010008B701000860
:1000A000B7010008B7010008B7010008B701000850
:1000B000B7010008B7010008B7010008B701000840
:1000C000B7010008B7010008B7010008B701000830
:1000D000B7010008B7010008B7010008B701000820
:1000E000B7010008B7010008B7010008B701000810
:1000F000B7010008B7010008B7010008B701000800
:10010000000000000000000000000000B70100082F
:10011000B7010008B7010008B7010008B7010008DF
:10012000B7010008B7010008B7010008B7010008CF
:10013000B7010008B701000800000000000000003F
:10014000B7010008B7010008B7010008000000006F
:10015000000000000000000000000000000000009F
:100160000000000000000000B7010008B70100080F
:10017000B7010008000000000000000000000000BF
:1001800000000000B7010008DFF80CD000F0A4F96F
:100190000048004735190008100400200648804731
:1001A00006480047FEE7FEE7FEE7FEE7FEE7FEE75C
:1001B000FEE7FEE7FEE7FEE7A91800088901000850
:1001C0002DE9FE4F804681EA0300C00F0C460090E7
:1001D00021F0004123F00045B8EB0200A94105D20F
:1001E0004046214690461C460B46024623F00040FE
:1001F000104347D0270DC7F30A00C3F30A510290FA
:10020000401A019040286BDAC3F3130040F4801BBE
:100210000098924620B10023D2EB030A63EB0B0B4C
:1002200001985946C0F14002504600F09FF806463A
:100230000D4650465946019A00F0A7F810EB080009
:100240006141002487EA115284EAE7731A4340D0DF
:10025000009A62B3019A012A4FEA075215DC001B8B
:1002600061EB02014FF0004202EA0752CDE9004281
:10027000001C41F5801132462B4600F0DEF803B039
:10028000BDE8F08F40462146F9E7001B61EB020113
:10029000001C41F5801300185B412018A2F50017DF
:1002A00047EB030140EAD570B6196D4111E06D08C6
:1002B0004FEA360645EAC0754FEA0752001B61EB6C
:1002C0000201001C41F5801149084FEA3000001975
:1002D000514132462B4603B0BDE8F04F00F09EB8C6
:1002E0000098012240000023D0EB020263EBE07390
:1002F000009821464FEAE074B8EB000061EB04017E
:10030000E9E783F000435BE781F0004158E700F044
:10031000004230F000400AD0C10D01F56071C0F319
:10032000160042EA0151C2084007114370470020FD
:100330000146704701F0004330B421F0004150EA1B
:10034000010206D00A0DA2F56072C1F31301002A62
:1003500002DC30BC00207047440F44EAC104C100F5
:10036000E01830BC00EBC25000F021B8202A04DBBA
:10037000203A00FA02F1002070479140C2F12003B8
:1003800020FA03F3194390407047202A06DBCB176D
:10039000203A41FA02F043EAE07306E041FA02F340
:1003A000D040C2F12002914008431946704700290D
:1003B000A8BF7047401C490008BF20F001007047EB
:1003C00010B4B0FA80FC00FA0CF050EA010404BF4B
:1003D00010BC704749B1CCF1200421FA04F411FAA1
:1003E0000CF118BF012121430843A3EB0C01CB1DE5
:1003F0004FEA00614FEA102042BF002010BC704756
:1004000000EBC35010440029A4BF10BC7047401C2F
:10041000490008BF20F0010010BC704710B5141E41
:1004200073F1000408DA401C41F1000192185B41AD
:100430001A4301D120F0010010BD2DE9F04D924684
:100440009B4611B1B1FA81F202E0B0FA80F220329B
:100450009046FFF78BFF04460F4640EA0A0041EA48
:100460000B0153465A46084313D0114653EA010084
:1004700019D0C8F14002504600F040F805460E463B
:10048000504659464246FFF771FF084305D0012008
:1004900004E020463946BDE8F08D0020054346EAD9
:1004A000E0762C4337430A986305E40AA0EB080082
:1004B0000022FD0A44EA47540A3002D500200146D2
:1004C000E9E7010510196941DDE9084500196941AD
:1004D000BDE8F04DA2E70000064C074D06E0E068DD
:1004E00040F0010394E8070098471034AC42F6D37B
:1004F000FFF74EFE5849000878490008202A04DB1F
:10050000203A21FA02F00021704721FA02F3D0408C
:10051000C2F120029140084319467047FEE7704738
:1005200070B5044600F0D8F80546601C02D00448B7
:100530000078044400F0D0F8401BA042FAD370BD0C
:10054000040000202DE9F84FDFF864B100234FF0DC
:10055000010C4FF0030A4FF00F090BF1040EA0E05D
:100560000CFA03F6324072D04C68022C01D0122CE7
:100570000ED1DC0800EB8408D8F820405D07EF0EB0
:1005800009FA07F5AC430D69BD402543C8F8205072
:1005900007685D0091F804800AFA05F408F0030882
:1005A000A74308FA05F848EA0708C0F800804F6832
:1005B000012F05D0022F03D0112F01D0122F11D1FE
:1005C0008768D1F80C80A74308FA05F848EA0708BD
:1005D000C0F808804768B7430E79C6F300169E40FE
:1005E0003E434660C668A6438C68AC403443C46052
:1005F0004C68E40054D52F4CA56945F00105A56170
:10060000A46923F0030504F0010400942A4C2E1978
:10061000B4689D072F0F09FA07F5AC43B0F1904F6E
:1006200004D0264DA84203D1012512E0002510E098
:10063000234DA84201D102250BE0224DA84201D151
:10064000032506E0204DA84202D1042501E027E061
:100650000525BD402543B560DBF800405D464E688A
:100660009443F60300D514432C60DEF80040754631
:100670004E689443B60300D514432C600C4D0835E6
:100680002C684E689443F60200D514432C60084D44
:100690000C352C684E689443B60200D514432C6088
:1006A0005B1C0A6832FA03F47FF45AAFBDE8F88F96
:1006B0000004014000100240000001400004004816
:1006C00000080048000C0048001000480AB1816191
:1006D00070478162704700000148806870470000E1
:1006E000040000200248816802781144816070474C
:1006F00004000020074810B5016841F010010160B6
:10070000032000F04BF8002000F006F800F024F879
:10071000002010BD0020024070B50D4D04464FF47E
:100720007A712878B1FBF0F00A490968B1FBF0F062
:1007300000F0F5FB48B9102C07D200222146501ECC
:1007400000F00CF800206C6070BD012070BD00004E
:10075000040000200000002070470000F0B40E4BA1
:100760001B680C46C3F30223C3F10705042D00D90F
:100770000425191D072901D2002300E0DB1E0126F4
:1007800006FA05F1491E214099409E40761E16400A
:100790003143F0BC01F040B80CED00E0064900F038
:1007A000070208684FF6FF03184040EA0220034A98
:1007B00010430860704700000CED00E00000FA05EF
:1007C0002DE9F0470F46050069D04A4E306800F029
:1007D0000700B84209D2306820F007003843306083
:1007E000306800F00700B84259D12878424C8007A1
:1007F00005D56068A96820F0F0000843606028789B
:10080000C0073DD06968012001290DD0022923D0FD
:100810005FF0020393FAA3F2B2FA82F242F02002EE
:10082000520904D0226803E04FF40033F2E7626A11
:1008300093FAA3F3B3FA83F303F01F039840024241
:100840002DD0606820F0030008436060FFF744FF8C
:10085000804641F288390CE04FF00073DAE700BFC0
:10086000FFF73AFFA0EB0801494502D90320BDE894
:10087000F0876068696800F00C00B0EB810FEFD181
:10088000306800F00700B8420BD9306820F007004C
:1008900038433060306800F00700B84201D00120D2
:1008A000E5E72878400705D56068E96820F4E0604E
:1008B000084360602878000706D56068296920F43D
:1008C000605040EAC100606000F022F86168F022E8
:1008D00092FAA2F201F0F001B2FA82F2D140074A94
:1008E000515CC840064908600020FFF715FF002052
:1008F000BDE700000020024000100240D0260008A2
:10090000000000200148006870470000000000203F
:10091000144B10B55A68144802F00C0104291DD07C
:1009200008291BD14FF4701494FAA4F402F4701146
:10093000B4FA84F4E1400D4CDB6A615C0F2494FA54
:10094000A4F403F00F03B4FA84F4E340074C10342A
:10095000D203E35C03D5B0FBF3F0484310BD044879
:10096000484310BD0010024000127A0036490008CA
:1009700000093D002DE9F84F040071D02078FB4DAF
:10098000C0074FF0010625D068687704C0F38100E6
:10099000012807D06868C0F3810002281BD168686D
:1009A000C00318D597FAA7F0B0FA80F040F0200005
:1009B000400901D0286800E0686A97FAA7F1B1FA07
:1009C00081F101F01F0106FA01F1084265D060686B
:1009D0000028D2D061E06068B0F5803F0BD010B144
:1009E000B0F5A02F17D0286820F480302860286840
:1009F00020F4802002E0286840F480302860E86A13
:100A0000A16820F00F000843E862606820B3FFF798
:100A100063FE80460AE0286840F480202860EAE708
:100A2000FFF75AFEA0EB0800642872D897FAA7F0E7
:100A3000B0FA80F040F02000400901D0286800E0C2
:100A4000686A97FAA7F1B1FA81F101F01F0106FA7D
:100A500001F10842E4D020E0FFF73EFE804607E0C7
:100A6000C7E000BFFFF738FEA0EB08006428DCD821
:100A700097FAA7F0B0FA80F040F02000400901D0CA
:100A8000286800E0686A97FAA7F1B1FA81F101F0ED
:100A90001F0106FA01F10842E4D12078DFF8D08284
:100AA00080074FF0000A4FF0020759D568684FF0F1
:100AB000F80B10F00C0F07D06868C0F38100022813
:100AC0001BD16868C00318D497FAA7F0B0FA80F079
:100AD00040F02000400901D0286800E0686A97FAD9
:100AE000A7F1B1FA81F101F01F0106FA01F1084204
:100AF0002BD0206901287CD127E0206988B396FAA1
:100B0000A6F0B0FA80F048F82060FFF7E5FD8146D6
:100B100006E055E1FFF7E0FDA0EB0900022884D8CC
:100B200097FAA7F0B0FA80F040F02000400901D019
:100B3000286800E0686A97FAA7F1B1FA81F101F03C
:100B40001F0106FA01F10842E4D028689BFAABF2D3
:100B50006169B2FA82F220F0F800914008432860FF
:100B600025E0FFE796FAA6F1B1FA81F148F821A055
:100B7000FFF7B2FD814605E0FFF7AEFDA0EB0900EF
:100B80000228CCD897FAA7F0B0FA80F040F0200005
:100B9000400901D0286800E0686A97FAA7F1B1FA25
:100BA00081F101F01F0106FA01F10842E4D1207839
:100BB00000076AD5A069A0B396FAA6F0B0FA80F053
:100BC00008EB8000C0F88064FFF786FD814605E0F1
:100BD000FFF782FDA0EB09000228A0D897FAA7F042
:100BE000B0FA80F040F06000B6EB501F02D12868E8
:100BF0000CE077E197FAA7F0B0FA80F040F06000DF
:100C0000B7EB501F01D1286A00E0686A97FAA7F194
:100C1000B1FA81F101F01F0106FA01F21042D7D0BA
:100C200033E0FFE796FAA6F0B0FA80F008EB800018
:100C3000C0F880A4FFF750FD814605E0FFF74CFDAA
:100C4000A0EB090002289CD897FAA7F0B0FA80F030
:100C500040F06000B6EB501F01D128680BE097FA16
:100C6000A7F0B0FA80F040F06000B7EB501F01D160
:100C7000286A00E0686A97FAA7F1B1FA81F101F0F9
:100C80001F0106FA01F21042D8D12078400774D52E
:100C9000E8694FF00009C00009D4E86940F08050CD
:100CA000E861E8694FF0010900F080500090314898
:100CB0000168C90512D4016841F480710160FFF731
:100CC0000BFD834606E000BFFFF706FDA0EB0B001F
:100CD000642875D827480068C005F5D5E068012864
:100CE0000AD008B1052811D0286A20F00100286236
:100CF000286A20F0040002E0286A40F0010028621F
:100D0000E068C8B3FFF7E8FC83460DE0286A40F0CE
:100D100004002862F0E700BFFFF7DEFCA0EB0B0148
:100D200041F2883081424BD897FAA7F0B0FA80F0B0
:100D300040F04000B6EB501F01D128680BE097FA55
:100D4000A7F0B0FA80F040F04000B7EB501F01D19F
:100D5000286A00E0686A97FAA7F1B1FA81F101F018
:100D60001F0106FA01F21042D6D035E00010024011
:100D7000000042420070004000E034E0FFF7ACFCAD
:100D8000834607E0FFF7A8FCA0EB0B0141F2883097
:100D9000814215D897FAA7F0B0FA80F040F04000F1
:100DA000B6EB501F01D128680CE097FAA7F0B0FA13
:100DB00080F040F04000B7EB501F02D1286A01E0FC
:100DC00083E0686A97FAA7F1B1FA81F101F01F0197
:100DD00006FA01F21042D5D1B9F1000F03D0E8694B
:100DE00020F08050E861E06980B36968C1F3810157
:100DF000022977D04FF080714F00022809D091FA74
:100E0000A1F0B0FA80F048F820A0FFF765FC044696
:100E10005EE050468A4691FAA1F1B1FA81F1C146ED
:100E200048F82100FFF758FC804605E0FFF754FC26
:100E3000A0EB0800022848D897FAA7F0B0FA80F093
:100E400040F02000400902D0286801E056E0686ABE
:100E500097FAA7F1B1FA81F101F01F0106FA01F149
:100E60000842E3D1D4E908100843696821F47411F9
:100E7000084368609AFAAAF0B0FA80F049F8206056
:100E8000FFF72AFC044604E0FFF726FC001B0228BB
:100E90001BD897FAA7F0B0FA80F040F02000400984
:100EA00001D0286800E0686A97FAA7F1B1FA81F1E9
:100EB00001F01F0106FA01F10842E5D01EE000BF73
:100EC000FFF70AFC001B022802D90320BDE8F88FB7
:100ED00097FAA7F0B0FA80F040F02000400902D065
:100EE000286801E00CE0686A97FAA7F1B1FA81F18D
:100EF00001F01F0106FA01F10842E1D10020E5E707
:100F00000120E3E74FF0E0210428086903D020F036
:100F100004000861704740F00400FAE7704710B51C
:100F2000401EB0F1807F01D3012010BD4FF0E024BE
:100F300060610F21601700F06FFC0020A0610720A6
:100F40002061002010BD10B5FFF7E8FF10BDFEE7DF
:100F50002DE9F04107461C4615460E462A2000F0B2
:100F6000F7FB07F1280000F0E6FB05F1280000F090
:100F7000E2FB2B2000F0ECFB06F1350000F0DBFB80
:100F800004F1350000F0D7FBBDE8F0412C2000F063
:100F9000DFBB10B514460B460246FFF7D9FF2046CB
:100FA000BDE8104000F0C7BB2DE9F0471F461646CC
:100FB0000C4680465B1E521EDDF82090FFF7C8FFEE
:100FC00008E0454603E0484600F0B5FB6D1CB5421D
:100FD000F9D3641CBC42F4D3BDE8F08770B5264851
:100FE00086B0416941F400314161416901F4003149
:100FF0000591416941F480114161416901F4801119
:101000000591416941F4802141614069012400F466
:1010100080200590B020CDE9000403254FF09046D4
:1010200069463046CDE90245FFF78CFA0122B0212E
:101030003046FFF74BFB0420CDE900040F4E694614
:101040003046CDE90245FFF77DFA01220421304602
:10105000FFF73CFB6020CDE90004CDE90245084CD8
:1010600069462046FFF76EFA012260212046FFF70D
:101070002DFB06B070BD000000100240000C0048BF
:101080000004004810B5FFF7A9FF694C00220421B5
:101090002046FFF71BFB642000F04AFC01220421DC
:1010A0002046FFF713FB642000F042FC01224021A0
:1010B0006048FFF70BFB642000F03AFC112000F0C1
:1010C00047FB782000F034FC362000F041FB702014
:1010D00000F052FB3A2000F03BFB052000F04CFBF7
:1010E000B22000F035FB0C2000F046FB0C2000F095
:1010F00043FB002000F040FB332000F03DFB332099
:1011000000F03AFBB72000F023FB352000F034FB61
:10111000BB2000F01DFB192000F02EFBC02000F0CA
:1011200017FB2C2000F028FBC22000F011FB01204F
:1011300000F022FBC32000F00BFB122000F01CFB90
:10114000C42000F005FB202000F016FBC62000F0B4
:10115000FFFA0F2000F010FBD02000F0F9FAA420D5
:1011600000F00AFBA12000F007FBE02000F0F0FAFD
:10117000D02000F001FB042000F0FEFA0D2000F06A
:10118000FBFA112000F0F8FA132000F0F5FA2B20FA
:1011900000F0F2FA3F2000F0EFFA542000F0ECFAF1
:1011A0004C2000F0E9FA182000F0E6FA0D2000F0DB
:1011B000E3FA0B2000F0E0FA1F2000F0DDFA232014
:1011C00000F0DAFAE12000F0C3FAD02000F0D4FAFF
:1011D000042000F0D1FA0C2000F0CEFA112000F02B
:1011E000CBFA132000F0C8FA2C2000F0C5FA3F20FB
:1011F00000F0C2FA442000F0BFFA512000F0BCFA1F
:101200002F2000F0B9FA1F2000F0B6FA1F2000F0DE
:10121000B3FA202000F0B0FA232000F0ADFA21202C
:1012200000F096FABDE81040292000F091BA0000C5
:10123000000C0048000400482DE9FF4F81B004462F
:10124000DDE90F7B4FEA570800904FEAD80000FB1A
:1012500007FA203AD0B20390029804EB0802C319AF
:1012600001462046521E5B1EFFF772FE002634E048
:10127000102F22D0202F32D11A49039801EB801071
:101280005FF0000510F80690BBF1000F4FF0010071
:1012900000FA05F000EA090014D020B12046049AB3
:1012A0000299FFF776FE0098641C211A41450FD180
:1012B0000298009C401C02900EE00B49039801EB41
:1012C0000010DDE708B1049800E00E9800F033FA52
:1012D0006D1CEDB2082DD7D3761C5645C8D305B08A
:1012E000BDE8F08FD02C0008E02600082DE9FE4F65
:1012F0009946DDE90D4715468A460646DDF83080F9
:1013000011E0102C14D0182C1DD0202C0ED1CDF8AB
:101310000080CDE901474B462A465146304600F051
:10132000E3F82644AD1C28780028EAD1BDE8FE8FFA
:10133000CDF80080CDE901474B462A46514630465C
:1013400000F00CF8EDE7CDF80080CDE901474B4601
:101350002A465146304600F063F8E2E72DE9FF4F98
:1013600083B00446DDE9119B00904FEAD90000FBF1
:1013700009FA0520002702902848059A07EB071173
:1013800010F811301278934241D100EB41000190E6
:10139000417805984078814239D1049804EB0902DC
:1013A00000EB090301462046521E5B1EFFF7D0FDED
:1013B00000262AE00198002500EB0608BBF1000F8B
:1013C00098F802104FF0010000FA05F001EA000160
:1013D0000FD021B12046069A0499FFF7DAFD009854
:1013E000641C211A49450AD10498009C401C0490B1
:1013F00009E009B1069800E0109800F09CF96D1C16
:10140000EDB2082DDAD3761CF6B25645D2D3029847
:101410007F1C8742B0D307B0BDE8F08F904400082E
:101420002DE9FF4F83B00446DDE9119B00904FEAA0
:10143000D90000FB09FA05200027029007EB87007E
:1014400000EB47112748059A10F8113012789342A3
:1014500041D100EB410001904178059840788142EC
:1014600039D1049904EB090201EB09032046521E0D
:101470005B1EFFF76DFD00262BE00198002500EBB9
:10148000060800BFBBF1000F98F802104FF00100F2
:1014900000FA05F001EA00010FD021B12046069ABA
:1014A0000499FFF776FD0098641C211A49450AD17A
:1014B0000498009C401C049009E009B1069800E0E3
:1014C000109800F038F96D1CEDB2082DDAD3761CB7
:1014D000F6B25645D1D302987F1C8742AED307B0EF
:1014E000BDE8F08F3A4500082DE9FF4F83B0044670
:1014F000DDE9119B00904FEAD90000FB09FA0520B5
:10150000002702902848059A07EB871110F8113040
:101510001278934241D100EB410001904178059847
:101520004078814239D1049804EB090200EB0903A9
:1015300001462046521E5B1EFFF70AFD00262AE0E8
:101540000198002500EB0608BBF1000F98F8021087
:101550004FF0010000FA05F001EA00010FD021B1BF
:101560002046069A0499FFF714FD0098641C211A7E
:1015700049450AD10498009C401C049009E009B137
:10158000069800E0109800F0D6F86D1CEDB2082D1A
:10159000DAD3761CF6B25645D2D302987F1C874226
:1015A000B0D307B0BDE8F08FAC4600082DE9FF4F7F
:1015B00015462DED020B83B0DFED1F0A139F834606
:1015C00020EE200A7E080024A246BCEEC00A10EEDF
:1015D000109A2BE0281B401EC1B20A2000F030FAFE
:1015E000B9FBF0F00A21B0FBF1F201FB1208A81ED2
:1015F00084420DD1129A00FB06B08DE884042E229D
:10160000089B0699FFF718FE641C6D1CE4B2EDB24E
:10161000129908F130008DE88204C2B204FB06B0D2
:10162000089B0699FFF708FE641CE4B2AC42D1D3D4
:1016300009B0BDE8F08F00000000C8422DE9FF4F5F
:1016400083B00026DDE911B81D4682464FEA5807EF
:101650003446B1462AE0281B401EC1B20A2000F0E1
:10166000EFF90599B1FBF0F00A21B0FBF1F201FBB3
:10167000120026B9691E8C4201DA50B101263030C1
:10168000C2B2CDF800B004FB07A0CDE90189109BE0
:1016900007E0CDF800B0CDE9018904FB07A0109B5D
:1016A00020220499FFF7C8FD641CE4B2AC42D2D3F7
:1016B00007B0BDE8F08F2DE9F0471F469046CB19E3
:1016C00000EB08020024521E5B1EDDF82090FFF79D
:1016D0003FFC00260FE000250AE019F8140000F096
:1016E00035F809EB4400407800F030F8641C6D1CBC
:1016F000BD42F2D3761C4645EDD3BDE8F0872DE917
:10170000FE4F9946DDE90D6714468A460546DDF829
:1017100030800BE0CDF800804B4651462846CDE99D
:101720000167FFF789FD05EB5605641C2278002A46
:10173000F0D1BDE8FE8F10B50446C0F3072000F0DD
:101740001BF8E0B2BDE8104000F016B800F014B885
:1017500070B5084C0546002220212046FEF7B6FF52
:10176000284600F009F82046BDE8704001222021FB
:10177000FEF7ACBF0004004870B505464FF0904638
:10178000002210213046FEF7A1FF00240022202174
:101790003046FEF79BFF280601D5012200E000221B
:1017A00080213046FEF792FF012220213046FEF7CD
:1017B0008DFF6806641C050EE4B2082CE6D33046A3
:1017C000BDE8704001221021FEF780BF30B50F4800
:1017D00087B0416941F40021416140694FF4805470
:1017E00000F4002005900120CDE900400290032084
:1017F000074D039069462846FEF7A4FE01222146C4
:101800002846FEF763FF07B030BD0000001002401D
:1018100000080048FEE770470907090E002806DAAD
:1018200000F00F0000F1E02080F8141D704700F177
:10183000E02080F8001470477047704710B5FEF73D
:1018400051FFBDE81040FFF77EBB30B58FB00121DE
:101850000804CDE900100024029402250491CDE98A
:1018600007504FF4E01009906846FFF783F80F2007
:10187000CDE90A056802CDE90C4002210AA80E94C0
:10188000FEF79EFFFFF73EF84FF47A71B0FBF1F0E0
:10189000FFF745FB0420FFF735FB00221146501EE1
:1018A000FEF75CFF0FB030BD1448016841F47001D1
:1018B00001601348016841F0010101604168114A6B
:1018C000114041600168104A11400160016821F433
:1018D00080210160416821F4FE014160C16A21F06C
:1018E0000F01C162016B094A11400163002181604F
:1018F0000249C003803908607047000088ED00E0AD
:10190000001002400CC07FF8FFFFF6FECCFC00FF89
:10191000FEE702E008C8121F08C1002AFAD170478A
:101920007047002001E001C1121F002AFBD170475F
:10193000FEF7F6BD2DED048B84B09FED358AFEF7E2
:10194000D9FEFFF782FFFFF741FFFFF79BFB4FF642
:10195000FF7400218723F02208460094FFF724FB40
:1019600000224FF480512B48FEF7B0FE00269FED79
:101970002A9BDFF8AC8020254FF478478DE8700073
:101980003B4628A200212820FFF7B0FC8DE870001C
:101990003B4627A221210A20FFF7B1FE009703232F
:1019A000F02221216A20CDE90145FFF747FE8DE8AD
:1019B00070003B4620A242210A20FFF7A0FE0097BC
:1019C0000323872242216A20CDE90145FFF736FE35
:1019D0003B460422B0EE480A63210A20CDE90045C7
:1019E000FFF7E4FD18EE100AFEF791FC53EC192BFB
:1019F000FEF7E6FBFEF79EFC08EE100A28231A46C7
:101A00005F21A020CDF80080FFF755FEB6E700006B
:101A10000000000000080048295C8FC2F528BC3F88
:101A2000501A0008D6D0BEB0D4B0B5E7D7D3000066
:101A30004C43445F573A00004C43445F483A00002F
:101A40000246012000E05043491EC9B2FBD2704754
:101A5000FFFFFFFFFFFFFFFFFFFFFFFFFFFFFFFF96
:101A6000FFFFFFFFFFFFFFFFFFFFFFFFFFFFF7BECF
:101A7000FFFFFFDEC6388C926B8E6B6E7C10AD96CE
:101A8000E73CFFFFFFFFFFFFFFFFFFFFFFFFFFFF41
:101A9000FFFFFFFFFFFFFFFFFFFFFFFFFFFFFFFF56
:101AA000FFFFFFFFFFFFFFFFFFFFFFFFFFFFFFFF46
:101AB000FFFFFFFFFFFFFFFFFFFFFFFFFFFFEF5DE8
:101AC0009D15634F426C320A298819461925214514
:101AD00031E86B8EC638FFFFFFFFFFFFFFFFFFFF00
:101AE000FFFFFFFFFFFFFFFFFFFFFFFFFFFFFFFF06
:101AF000FFFFFFFFFFFFFFFFFFFFFFFFFFFFFFFFF6
:101B0000FFFFFFFFFFFFFFFFFFFFFFFFA5365310A3
:101B10004B1053514B0F3A6C31E92167192510E4F2
:101B200008A30062088352CBD69AFFFFFFFFFFFF96
:101B3000FFFFFFFFFFFFFFFFFFFFFFFFFFFFFFFFB5
:101B4000FFFFFFFFFFFFFFFFFFFFFFFFFFFFFFFFA5
:101B5000FFFFFFFFFFFFFFFFE73C637063B37CB84D
:101B600063F54311324D29EA218819261905190513
:101B70001104110410E4008308A38C72FFFFFFFF1F
:101B8000FFFFFFFFFFFFFFFFFFFFFFFFFFFFFFFF65
:101B9000FFFFFFFFFFFFFFFFFFFFFFFFFFFFFFFF55
:101BA000FFFFFFFFFFFFDEDB3A4B42F06C354B548B
:101BB00032B12A2E21EB21A919671905110411044C
:101BC000110411041104190510E4004273AFFFFF62
:101BD000FFFFFFFFFFFFFFFFFFFFFFFFFFFFFFFF15
:101BE000FFFFFFFFFFFFFFFFFFFFFFFFFFFFFFFF05
:101BF000FFFFFFFFEF5D3209324C4B10328F2A4F4F
:101C00002A2E19CC198921891947190511041104A3
:101C100010C410C411041104110410E400428431F2
:101C2000FFFFFFFFFFFFFFFFFFFFFFFFFFFFFFFFC4
:101C3000FFFFFFFFFFFFFFFFFFFFFFFFFFFFFFFFB4
:101C4000FFFFFFFF52EC1947324C2A0B21EC21EC2D
:101C5000220C5B914AEE11061926190410E410E4D7
:101C600029A7216608A319051104110410E40082B4
:101C7000BDF7FFFFFFFFFFFFFFFFFFFFFFFFFFFFBE
:101C8000FFFFFFFFFFFFFFFFFFFFFFFFFFFFFFFF64
:101C9000FFFFA535088321882188218921AA218A6F
:101CA000426B8C71FFFF8C720883110408C44229B7
:101CB000DEFBEF5D5AEC0883110411041104088364
:101CC00031E8FFDFFFFFFFFFFFFFFFFFFFFFFFFF29
:101CD000FFFFFFFFFFFFFFFFFFFFFFFFFFFFFFFF14
:101CE000F7BE31C710C4192519261947194729A865
:101CF000528A4A28AD55FFFF31E808A319056B4DFC
:101D00006B4DFFFFEF7D214510C411041104110438
:101D10000062AD76FFFFFFFFFFFFFFFFFFFFFFFF4A
:101D2000FFFFFFFFFFFFFFFFFFFFFFFFFFFFFFFFC3
:101D3000B5960062110419041105190508C44A8BEF
:101D4000B5B6EF5DBDF7FFFF6B8E006242295AAA60
:101D50004208FFFFFFFF52CC088311041104110455
:101D600008A352ADFFFFFFFFFFFFFFFFFFFFFFFFD5
:101D7000FFFFFFFFFFFFE71CFFFFFFFFFFFFFFFF6E
:101D8000634E006211041104110410E40062638EBA
:101D9000FFFFFFFFFFFFFFFF73CF00019CF3632CEA
:101DA000B596FFFFFFFF5B2D0083110411041104A2
:101DB00010E42167EF3DFFFFFFFFFFFFFFFFFFFF85
:101DC000BDF8B5B7EF9E52CB94B3FFFFFFFFFFDF27
:101DD00031E808A3110411041104110408A34249B5
:101DE000F7FFF7FFFFFFFFFF4A6A00018472FFFF62
:101DF000FFFFF7FFEFDF3A0908A3110411041104F4
:101E000011041105BE18FFFFFFFFFFFFFFFFFFFFDB
:101E10007BF0006231E831C70041A535FFFFEF5D7F
:101E2000214610C4110411041104110410E408A384
:101E30009D76F7FFFFFFADB708A308A331C7E79E64
:101E4000F7FFF7FFA57608A310E4110411041104AD
:101E500011051105A535FFFFFFFFFFFFFFFFFFFF86
:101E6000DEDB29A7008310C410C410C4E71CEF9E5A
:101E7000110510E41104110411041104190408C41B
:101E800010E56BD16BD108C5006408A50043322B67
:101E90009D7784B3192510C4110411041104110491
:101EA000192509269D35FFFFFFFFFFFFFFFFFFFFFD
:101EB000FFFF73AF00621904190500825B0D9B8E52
:101EC0001062110511041104190410E400851105B4
:101ED00039C45A817B409C22AC43A4039B83728209
:101EE000498218C200A400C510E4190411041905A0
:101EF000194711675AECFFBEFFFFFFFFFFFFFFFF0F
:101F0000FFDFDEDB10C410E41104110518A4C001CA
:101F1000888300E41905190408C521448343D523A7
:101F2000FE42FEE4FF27FF07FEA4FE64FE03FDA3BE
:101F3000FCE2EC42B383622410E508C419041926BC
:101F400019A821879000BCD3FFFFFFFFFFFFFFFF11
:101F5000FFDFFFFF7C100042190511052883D00127
:101F6000F84448A300E408C55A44ED02FDE2FE022D
:101F7000FE66FF74FFB8FF73F6E7F6A6F645F5A414
:101F8000FCC3FC62FCC2FCC2CBE349C41106198845
:101F9000018790A4F8019AECFFFFFFFFFFFFFFFF0E
:101FA000FFFFFFFFF7BE31E8008309054082C00153
:101FB000F823F08548A300A45A44FD02CC23DCC2D8
:101FC000FE04FE28F648F646F624F5E4FD64FCE33C
:101FD000FC62FCC2E402DC02FCE27AA40148016774
:101FE00078C4F824F802B084E77DFFFFFFFFFFFF0D
:101FF000FFFFFFFFFFFFDEDB192500A338C4E0026F
:10200000D822F844F8A678A4006321437283398368
:102010009B82F521FD61FD22FCE2FCA2FC42FC4218
:10202000FC42AB22418392C352040126192598A495
:10203000F844F823F802D0A4EF9EFFFFFFFFFFFF54
:10204000FFFFFFFFFFFFFFFFD69A298700A5B843D8
:10205000F822E023F865F8E8C9074883004200A3A6
:10206000008429637AA2B362CBA2D362BB028A82C4
:10207000398300A400E500E508E560C4D864F844AD
:10208000F824F823F8028883C6DBFFFFFFFFFFFF79
:10209000FFFFFFFFFFFFFFFFFFFFE73D5B50310842
:1020A000E823F843F044F865F909F9ABD1898906CA
:1020B00048A31842000200420061008200620062F0
:1020C000008320A350C488A5D885F865F844F84457
:1020D000F823F823D003108229C7EF5DFFFFFFFF2D
:1020E000FFFFFFFFFFFFFFFFFFFFFFFFFFFF326C60
:1020F00038A5D802F823F865F866F8A7F94AFA0C6B
:10210000FA4DEA4CD20BB9A9B168A947B127B90772
:10211000D107E8E7F8C7F8A7F865F865F844F823A9
:10212000F803D00228A3090508C45AECFFFFFFFFFB
:10213000FFFFFFFFFFFFFFFFFFFFFFFFDEFB1905B4
:1021400000C441A7C0E6F803F886F8A7F887F88628
:10215000F8C7F929F98AF9ABF9ABF98BF96AF929CA
:10216000F908F8C7F8A6F886F865F864F823F002CD
:10217000B106292500E410E4192519259D14FFFF57
:10218000FFFFFFFFFFFFFFFFFFFFFFFFAD960062B6
:1021900008829535CEBAA28BD044F825F887F8A7E7
:1021A000F8C7F8A7F887F886F886F886F887F8A7BA
:1021B000F8A7F8A6F885F865F864F024B864930DDC
:1021C000B6BB63CF0883110410E421663A49EF5D82
:1021D000FFFFFFFFFFFFFFFFFFFFFFFF94D3004262
:1021E00010E4CEBBFFFFE7BEB576AACCC107E04541
:1021F000F845F846F866F886F886F886F886F865B1
:10220000F845F865E865D044A84388019082D73C3A
:10221000EFFF95550883110411041905194694B36D
:10222000FFFFFFFFFFFFFFFFFFFFFFFF94B3004132
:102230002186DF5DFFFFFFFFFFFFE7DFC67AB4D334
:10224000B34EC22AD168E0E6E8A6E8A5E8A5D8E63C
:10225000C988A906A822A802A000C800D800E5F7EE
:10226000E7FFADF810C410E4110410E411054A8B27
:10227000FFFFFFFFFFFFFFFFFFFFFFFFA55500412F
:1022800029A7DF5DF7FFFFFFFFFFFFFFFFFFFFFF56
:10229000EFFFDF7DCEDBCE59CDF8CDD7C5F7CE79B8
:1022A000BEFBA2ABF003F845D042E843F000D47285
:1022B000DFFFAE3910E410E4110410E411052987A2
:1022C000FFFFFFFFFFFFFFFFFFFFFFFFCE59088368
:1022D0002146D71CF7FFFFFFFFFFFFFFFFFFFFFFB8
:1022E000FFFFFFFFFFFFFFFFFFFFFFFFFFFFFFFFFE
:1022F000EFFFBA8BF804F845E062F044F800DB8E9B
:10230000DFFFA5F810C410E410E4110410E419254F
:10231000FFFFFFFFFFFFFFFFFFFFFFFFF7BE298764
:102320000883B639F7FFF7DFFFFFFFFFFFFFFFFF6F
:10233000FFFFFFFFFFFFFFFFFFFFFFFFFFFFFFFFAD
:10234000E7BEBA4AF803F845F864F844F800E36ECB
:10235000D7FF8CF40883110410E410E410E419058D
:10236000FFFFFFFFFFFFFFFFFFFFFFFFFFFF73EF19
:1023700000008472EFFFEFBEFFDFFFFFFFFFFFFFF4
:10238000FFFFFFFFFFFFFFFFFFFFFFFFFFFFFFFF5D
:10239000E7DFBA8BF803F845F845F823F800D4D303
:1023A000D7FF5B4E00213A29A555088310C4192593
:1023B000FFFFFFFFFFFFFFFFFFFFFFFFFFFFDEFB52
:1023C00008A331E8DF9EE79EEFBFFFFFFFFFFFFF9F
:1023D000FFFFFFFFFFFFFFFFFFFFFFFFFFFFFFFF0D
:1023E000F7FFBC51E002F803F003E043C2ECCF7EFC
:1023F000BEFC2146002194D3FFFF845100002987B1
:10240000FFFFFFFFFFFFFFFFFFFFFFFFFFFFFFFFDC
:10241000845100008CF4EFFFE79EEFBFFFDFFFFF6A
:10242000FFFFFFFFFFFFFFFFFFFFFFFFFFFFFFFFBC
:10243000FFFFDF3DBD55BC52BC72B5B7C75DDFFFC6
:102440006BF000003A09F7BFFFFFFFFF9D14A55591
:10245000FFFFFFFFFFFFFFFFFFFFFFFFFFFFFFFF8C
:10246000FFFF4AAC08A4BEBBE7DFE77EEFBEF7DFA5
:10247000FFDFFFFFFFFFFFFFFFFFFFFFFFFFFFFF8C
:10248000FFDFF7DFEFFFDFDFD7BFD79EDFDFA5D8A6
:1024900008831126D6DBFFFFFFFFFFFFFFFFFFFFD3
:1024A000FFFFFFFFFFFFFFFFFFFFFFFFFFFFFFFF3C
:1024B000EE79DC8B312121A9CF3DDFBFDF7EE79EA6
:1024C000EFBEEFBFF7DFF7DFF7DFF7DFF7DFEFBFD5
:1024D000EFBEE79EDF7ED75ED75EDFDFB69A1926B6
:1024E0000842A3EDFFBFFFFFFFFFFFFFFFFFFFFF5E
:1024F000FFFFFFFFFFFFFFFFFFFFFFFFFFFFDD7499
:10250000DBC0FE00EE4242022189B67BDFDFD77ED0
:10251000DF7EDF7EE79EE79EE79EE79EE79EDF7E0B
:10252000DF7ED75DD75DDF9EE7FFA5F8110718E3D3
:10253000C502FD60D3E6EEDBFFFFFFFFFFFFFFFFFD
:10254000FFFFFFFFFFFFFFFFFFFFFFFFF79EBA84C4
:10255000FCC1FE42FE82FEA2838121457474C75EE7
:10256000DFDFD77ED75ED75DD75ED75ED75DD75D1D
:10257000D75EDF9EE7FFC73D63F108845242E6263F
:10258000FF29FE86F3E0C36AFFFFFFFFFFFFFFFFA7
:10259000FFFFFFFFFFFFFFFFFFFFFFFFDE18D2C1BE
:1025A000FDA2FE22FE42FE42FE62D4E26A414249A0
:1025B0007453A63BC73ED7BFD7BFD7BFDFBFD7BF78
:1025C000C73EA61A63F229A74182B422FE62FE83A7
:1025D000FEAAFF0FFD67BA63EF3CFFFFFFFFFFFF9F
:1025E000FFFFFFFFFFFFFFFFFFFFFFFFE69AD28025
:1025F000FD21FDC2F5E2F5C2F582FD82FD62DC61DE
:102600009B216A846AE9632C63AF7411636E632C47
:102610005A8952047A81CBC2FCE2FD62FD82FDC27E
:10262000FDC2FDE4FD24CA62E71CFFFFFFFFFFFFC0
:10263000FFFFFFFFFFFFFFFFFFFFFFFFFFFFCCB12B
:10264000D281F3C0FCC1FD02FD02FCE2FCC2FCC26F
:10265000FC81FB80C9C081A4AD35CE599C7181211C
:10266000DA00FBA1FC82FCA2FC82FCA2FD02FD229E
:10267000FCE2FC00DA60CC90FFFFFFFFFFFFFFFFF2
:10268000FFFFFFFFFFFFFFFFFFFFFFFFFFFFFFFF5A
:10269000DE59C40DCB06D2E4DB03DB03DAE3D2C39D
:1026A000C2A4B309BCD2F79EFFFFFFFFFFFFE6FB0A
:1026B000B40EBAA6D283E2E3EB02EB22E322DB0301
:1026C000D2E4C36AD5B6FFFFFFFFFFFFFFFFFFFFA6
:1026D00000000000000000000102030406070809D2
:1026E00000000000000000000000000000000000EA
:1026F0000000000808080808080800001818000072
:1027000000486C24120000000000000000000000DF
:102710000000002424247F1212127F1212120000E3
:102720000000081C2A2A0A0C1828282A2A1C080833
:1027300000000022251515152A5854545422000073
:102740000000000C1212120A76252911916E000069
:102750000006060403000000000000000000000066
:102760000040201010080808080808101020400039
:1027700000020408081010101010100808040200CD
:102780000000000008086B1C1C6B0808000000001B
:1027900000000000080808087F080808080000007A
:1027A0000000000000000000000000000606040316
:1027B0000000000000000000FE000000000000001B
:1027C00000000000000000000000000006060000FD
:1027D000000080404020201010080804040202007D
:1027E00000000018244242424242424224180000A3
:1027F000000000080E08080808080808083E000045
:102800000000003C4242422020100804427E0000AA
:102810000000003C4242201820404042221C0000A0
:10282000000000203028242422227E20207800006E
:102830000000007E0202021A26404042221C0000D4
:10284000000000382402021A2642424224180000E6
:102850000000007E22221010080808080808000066
:102860000000003C4242422418244242423C000004
:10287000000000182442424264584040241C0000DA
:1028800000000000000018180000000018180000E8
:10289000000000000000000800000000000808041C
:1028A000000000402010080402040810204000002E
:1028B0000000000000007F0000007F00000000001A
:1028C000000000020408102040201008040200004C
:1028D0000000003C42424640201010001818000042
:1028E0000000001C225A555555552D42221C00004F
:1028F0000000000808181414243C224242E700009B
:102900000000001F2222221E22424242221F0000FB
:102910000000007C4242010101010142221C000032
:102920000000001F2242424242424242221F000057
:102930000000003F4212121E12120242423F0000EB
:102940000000003F4212121E121202020207000093
:102950000000003C2222010101712122221C000002
:10296000000000E7424242427E42424242E700000B
:102970000000003E0808080808080808083E000093
:102980000000007C10101010101010101010110F0B
:102990000000007722120A0E0A121222227700008B
:1029A000000000070202020202020202427F00004F
:1029B00000000077363636362A2A2A2A2A6B00008B
:1029C000000000E346464A4A525252626247000003
:1029D0000000001C2241414141414141221C0000B4
:1029E0000000003F424242423E0202020207000053
:1029F0000000001C2241414141414D53321C600006
:102A00000000003F4242423E1212222242C7000012
:102A10000000007C4242020418204042423E000076
:102A20000000007F4908080808080808081C000082
:102A3000000000E74242424242424242423C000021
:102A4000000000E742422224241414180808000061
:102A50000000006B494949495555362222220000A1
:102A6000000000E7422424181818242442E700003C
:102A7000000000772222141408080808081C00002F
:102A80000000007E2120101008040442423F000094
:102A900000780808080808080808080808087800E6
:102AA0000000020204040808081010202020404002
:102AB000001E1010101010101010101010101E001A
:102AC000003844000000000000000000000000008A
:102AD000000000000000000000000000000000FFF7
:102AE00000060800000000000000000000000000D8
:102AF000000000000000003C4278444242FC00001C
:102B0000000000030202021A26424242261A000076
:102B100000000000000000384402020244380000B7
:102B200000000060404040784442424264D80000C7
:102B3000000000000000003C427E0202423C000017
:102B4000000000F08808087E08080808083E000019
:102B5000000000000000007C22221C023C42423C9B
:102B6000000000030202023A4642424242E70000ED
:102B70000000000C0C00000E08080808083E0000C9
:102B80000000003030000038202020202020221EAD
:102B90000000000302020272120A161222770000DD
:102BA0000000000E0808080808080808083E000091
:102BB000000000000000007F9292929292B7000005
:102BC000000000000000003B4642424242E7000095
:102BD000000000000000003C42424242423C000033
:102BE000000000000000001B26424242221E020795
:102BF000000000000000007844424242447840E077
:102C000000000000000000774C040404041F0000D2
:102C1000000000000000007C42023C40423E0000F8
:102C2000000000000008083E0808080808300000FE
:102C300000000000000000634242424262DC0000EB
:102C400000000000000000E74224241408080000EF
:102C500000000000000000EB494955552222000009
:102C6000000000000000007624181818246E0000F0
:102C700000000000000000E74224241418080807A0
:102C8000000000000000007E22100808447E0000C2
:102C900000C0202020202010202020202020C00044
:102CA0001010101010101010101010101010101024
:102CB00000060808080808100808080808080600A0
:102CC0000C32C20000000000000000000000000004
:102CD00000000000000000000000000000000000F4
:102CE00000000000000000000000000000000000E4
:102CF00000000000000000000000000000000000D4
:102D000000000000000000000000000000000000C3
:102D100000000000000000000000C001C001C00170
:102D2000C001C001C001C00180008000800080009F
:102D30008000800080000000000000000000800192
:102D4000C003C0038001000000000000000000007C
:102D5000000000000000E01CE01CF01E700E3807B0
:102D600018030801840000000000000000000000BB
:102D70000000000000000000000000000000000053
:102D80000000000000000000000000000000000043
:102D900000000000000000000000000020102010D3
:102DA000201020102010FE7FFE7F10081008100851
:102DB0001008100810081008FE7FFE7F08040804A1
:102DC00008040804080400000000000000000000DF
:102DD000000000000000000000010001C0076019B1
:102DE000103118311839183938017001E001C00369
:102DF0008007000F001D003900311C311C310C31DF
:102E00000C11180DE0070001000100010000000096
:102E10000000000000000000000000001C10361838
:102E20006308630C63046304630263026301361D79
:102E30009C3780228063406340632063206330635B
:102E400010221836081C00000000000000000000DE
:102E5000000000000000000000000000F0009801E9
:102E60008C018C018C018C018C00CC007800183E08
:102E70001C083608320863046304C304C303834395
:102E800006438E26781C00000000000000000000B1
:102E90000000000000001C003C003C00300030003E
:102EA00010000C0006000000000000000000000000
:102EB0000000000000000000000000000000000012
:102EC0000000000000000000000000000000000002
:102ED0000000000000000040002000100008000C6E
:102EE000000400060003000300038001800180014C
:102EF0008001800180018001800100030003000344
:102F000000060006000C0008001000200040000031
:102F10000000000000000200040008001000300063
:102F200020006000C000C000C0008001800180015E
:102F300080018001800180018001C000C000C000CC
:102F40006000600030001000080004000200000073
:102F50000000000000000000000000000000000071
:102F600000018003800300011C713C79783DC0079B
:102F70000001C007783D3C791C710001800380038B
:102F800080010000000000000000000000000000C0
:102F90000000000000000000000000000000000031
:102FA000000000010001000100010001000100011A
:102FB000FC7F00010001000100010001000100018F
:102FC0000000000000000000000000000000000001
:102FD00000000000000000000000000000000000F1
:102FE00000000000000000000000000000000000E1
:102FF00000000000000000000000000000000000D1
:103000001C003C003C003000300010000C000600AA
:1030100000000000000000000000000000000000B0
:1030200000000000000000000000000000000000A0
:10303000FE7F000000000000000000000000000013
:103040000000000000000000000000000000000080
:103050000000000000000000000000000000000070
:103060000000000000000000000000000000000060
:103070000000000000000000000000000000180038
:103080003C003C00180000000000000000000000B0
:103090000000000000000040006000200030001030
:1030A00000180008000C00040006000200030001E4
:1030B00080018000C000400060002000300010004F
:1030C000180008000C0004000600020000000000C8
:1030D000000000000000000000000000C007600CBD
:1030E00030181830183018200C600C600C600C6020
:1030F0000C600C600C600C600C60182018301830EC
:103100003018600CC0070000000000000000000044
:10311000000000000000000000000000000180012D
:10312000F80180018001800180018001800180011F
:103130008001800180018001800180018001800187
:103140008001C003F81F0000000000000000000024
:10315000000000000000000000000000E007101C5C
:103160000818043004300C300C300030001800080F
:1031700000040002000180004000202010200820F0
:103180000430FC1FFC1F00000000000000000000D5
:10319000000000000000000000000000E003180E26
:1031A0000C0C0C180C180C180018000C0006C003AE
:1031B000000E00180010003000300C300C300C10E5
:1031C0000C18180CE00300000000000000000000D4
:1031D000000000000000000000000000000C000ED5
:1031E000000E000F800E800E400E600E200E100E9E
:1031F000100E080E040E040EFE7F000E000E000ED0
:10320000000E000E000EC07F000000000000000055
:10321000000000000000000000000000F03FF03F50
:1032200010001000100008000800C807280C18182B
:10323000081000300030003000300C300C30041822
:103240000418080CF003000000000000000000005B
:10325000000000000000000000000000800FC0100F
:10326000203010301800180008000C008C0F6C186B
:103270003C301C600C600C600C600C601860182006
:1032800030306018C007000000000000000000009F
:10329000000000000000000000000000F83FF83FC0
:1032A0001C100C08040804040004000200020001C1
:1032B00000010001800080008000C000C000C0004C
:1032C000C000C000C00000000000000000000000BE
:1032D000000000000000000000000000E007300CCB
:1032E00018180C300C300C301C3038187008E007FF
:1032F000B007180E0C1C06380630063006300630B3
:103300000C18180CE0030000000000000000000092
:10331000000000000000000000000000E0031804AE
:103320000C080C1806100630063006300630063839
:103330000C3C1836F03100300018001800180C0C46
:103340000C060C03F001000000000000000000006B
:10335000000000000000000000000000000000006D
:10336000000000000000000000008001C003C00356
:10337000800100000000000000000000000080014B
:10338000C003C00380010000000000000000000036
:10339000000000000000000000000000000000002D
:1033A00000000000000000000000C000C00000009D
:1033B000000000000000000000000000000000000D
:1033C0000000C000C00080008000400040000000FD
:1033D00000000000000000000000002000100008B5
:1033E0000004000600038001C000600030001800E7
:1033F0000C00180030006000C000800100030006CF
:103400000004000800100020000000000000000080
:1034100000000000000000000000000000000000AC
:1034200000000000000000000000FE7F000000001F
:10343000000000000000FE7F00000000000000000F
:10344000000000000000000000000000000000007C
:103450000000000000000000000004000800100050
:1034600020006000C000800100030006000C00186E
:1034700000300018000C000600038001C00060004E
:103480002000100008000400000000000000000000
:1034900000000000000000000000C00730180830E5
:1034A00008600C601C601C601C600030001C000682
:1034B000000180008000800080000000000080018A
:1034C000C003C003800100000000000000000000F5
:1034D000000000000000000000000000C0076018AD
:1034E000103018200C2F8C4D864CC64CC64C664CA8
:1034F00066446644662666266615CC1C0C40082089
:1035000018303018C0070000000000000000000064
:10351000000000000000000000000001C001C00128
:10352000C001400160032003200320033006100681
:1035300010061006F80F080C080C080C0C0C0418E8
:10354000041806181F7C00000000000000000000A6
:10355000000000000000000000000000FE07181C32
:10356000183818301830183018301818180CF80798
:103570001818183018201860186018601860186043
:1035800018301818FE0F00000000000000000000B6
:10359000000000000000000000000000C0276038AC
:1035A000103018200C400C400400060006000600F5
:1035B000060006000600060006000C400C400C2029
:1035C00018303018C00700000000000000000000A4
:1035D000000000000000000000000000FE03180EC4
:1035E00018181830183018301860186018601860F3
:1035F00018601860186018601860183018301810BB
:103600001818180EFE030000000000000000000063
:10361000000000000000000000000000FE3F183025
:10362000182018601840180018081808180CF80F0F
:10363000180C18081808180018001800184018402E
:1036400018201830FE3F00000000000000000000BD
:10365000000000000000000000000000FE7F187065
:10366000184018C018801800181018101818F81FE3
:103670001818181018101800180018001800180052
:10368000180018007E00000000000000000000008C
:10369000000000000000000000000000C013701CCB
:1036A000101018100C200C20040006000600060064
:1036B0000600060006FC063006300C300C301830D0
:1036C00018303008C00700000000000000000000B3
:1036D0000000000000000000000000003F7E0C1809
:1036E0000C180C180C180C180C180C180C180C18BA
:1036F000FC1F0C180C180C180C180C180C180C18B3
:103700000C180C183F7E00000000000000000000B4
:10371000000000000000000000000000F81F800111
:103720008001800180018001800180018001800191
:103730008001800180018001800180018001800181
:1037400080018001F81F0000000000000000000060
:10375000000000000000000000000000E07F000604
:103760000006000600060006000600060006000629
:103770000006000600060006000600060006000619
:1037800000060006000600060E060E038E01FC0071
:103790000000000000000000000000007E7C1818FF
:1037A0001808180418061802180198019801D80181
:1037B000B803380318071806180E180C181C181828
:1037C000183018307EFC00000000000000000000EF
:1037D0000000000000000000000000007E00180053
:1037E0001800180018001800180018001800180019
:1037F0001800180018001800180018001840184089
:1038000018201830FE3F00000000000000000000FB
:103810000000000000000000000000001FF81C383D
:103820001C381C381C3C3434343434343436743250
:103830006432643264326431C431C431C431C4305E
:10384000C43084309FFC0000000000000000000035
:103850000000000000000000000000001F7C1C10A1
:103860003C103410341074106410E410C410C411EF
:1038700084118413041304170416041E041C041C6E
:10388000041C04181F1800000000000000000000C5
:10389000000000000000000000000000C003300C29
:1038A000181808100C300C300660066006600660C0
:1038B000066006600660066006600C200C3008108A
:1038C0001818300CC00300000000000000000000C9
:1038D000000000000000000000000000FE0F1818AB
:1038E00018301860186018601860186018301818C0
:1038F000F80F180018001800180018001800180019
:10390000180018007E000000000000000000000009
:10391000000000000000000000000000C003300CA8
:1039200018180C100C300C2006600660066006604B
:1039300006600660066006600660E4612C331C3297
:103940001816300EC007004C007C00380000000044
:10395000000000000000000000000000FE07181C2E
:10396000183818301830183018301818180CF80794
:1039700098031803180718061806180E180C180CC8
:10398000181C18187E7800000000000000000000DD
:10399000000000000000000000000000E0273038B8
:1039A00018300C200C200C000C0018007800E003EC
:1039B000800F001E00380070006004600460086022
:1039C00018303818C80F0000000000000000000088
:1039D000000000000000000000000000FC3F8C21FF
:1039E00084618241824180018001800180018001E7
:1039F00080018001800180018001800180018001BF
:103A000080018001E00700000000000000000000CD
:103A10000000000000000000000000003F7C0C10CF
:103A20000C100C100C100C100C100C100C100C10B6
:103A30000C100C100C100C100C100C100C100C10A6
:103A400008083804E0030000000000000000000047
:103A50000000000000000000000000003EF81820F8
:103A60001820182030103010301030106008600816
:103A70006008E00CC004C004C0048003800380031D
:103A800080030001000100000000000000000000B1
:103A9000000000000000000000000000DFF386616D
:103AA000862186218C210C218C238C138C138C1362
:103AB0004C1358125816580E380E380E380E300C5B
:103AC00010041004100400000000000000000000BA
:103AD0000000000000000000000000007E3E18080A
:103AE00038083004300470026002E001C001C001F7
:103AF000800180034003400720062006100C100CB4
:103B0000081808183E7C00000000000000000000BB
:103B10000000000000000000000000007E7C1C107F
:103B2000181018083008300C700460046002C002DD
:103B3000C002C001800180018001800180018001FC
:103B400080018001E007000000000000000000008C
:103B5000000000000000000000000000F83F1818FE
:103B60000818040C040E00060007000380038001FF
:103B7000C001C000E0006000700030003820182054
:103B80001C100C18FE1F00000000000000000000C8
:103B9000000000000000C03F400040004000400026
:103BA0004000400040004000400040004000400015
:103BB0004000400040004000400040004000400005
:103BC00040004000400040004000C03F00000000B6
:103BD00000000000000000000000080018001800AD
:103BE000100030002000600060004000C000800035
:103BF00080018001000100030002000600060004AD
:103C0000000C000800180018001000300020000010
:103C1000000000000000FC0300020002000200029D
:103C20000002000200020002000200020002000284
:103C30000002000200020002000200020002000274
:103C400000020002000200020002FC03000000006B
:103C50000000000000008007C006200810100000CF
:103C60000000000000000000000000000000000054
:103C70000000000000000000000000000000000044
:103C80000000000000000000000000000000000034
:103C90000000000000000000000000000000000024
:103CA0000000000000000000000000000000000014
:103CB0000000000000000000000000000000000004
:103CC0000000000000000000000000000000FFFFF6
:103CD0000000000000007800C000000100000000AB
:103CE00000000000000000000000000000000000D4
:103CF00000000000000000000000000000000000C4
:103D000000000000000000000000000000000000B3
:103D100000000000000000000000000000000000A3
:103D200000000000000000000000F00318060C0C6A
:103D30000C0C000C800F700C1C0C0C0C060C060CF0
:103D4000064C0C4FF8380000000000000000000096
:103D50000000000000000000000010001E0018001D
:103D600018001800180018001800180FD81838305C
:103D700038601860186018601860186018601820A3
:103D800038307818C807000000000000000000006C
:103D90000000000000000000000000000000000023
:103DA00000000000000000000000C007700C1818A0
:103DB00018180C180C000C000C000C000C2018201B
:103DC00018103008C00700000000000000000000CC
:103DD000000000000000000000000010001E00189D
:103DE00000180018001800180018E01B301C1818E4
:103DF00018180C180C180C180C180C180C1808189B
:103E0000181C307AE00900000000000000000000EB
:103E100000000000000000000000000000000000A2
:103E200000000000000000000000C007300C18185F
:103E300008100C300C30FC3F0C000C000C0018205B
:103E400018107018C00700000000000000000000FB
:103E5000000000000000000000000000003E80C3E1
:103E600080C0C0C0C000C000C000FC1FC000C000B7
:103E7000C000C000C000C000C000C000C000C00042
:103E8000C000C000F80F00000000000000000000AB
:103E90000000000000000000000000000000000022
:103EA00000000000000000000000C077306C101817
:103EB0001818181818181018300CF00718001800E7
:103EC000F00FF03F08700C600C600C603838E00FA9
:103ED0000000000000000000000010001E0018009C
:103EE00018001800180018001800980FD81838305B
:103EF0001830183018301830183018301830183082
:103F0000183018307EFC00000000000000000000A7
:103F1000000000000000000000000000800380039B
:103F200080030000000000000001F8018001800112
:103F30008001800180018001800180018001800179
:103F400080018001F81F0000000000000000000058
:103F500000000000000000000000000000380038F1
:103F600000380000000000000010801F001800183A
:103F70000018001800180018001800180018001881
:103F800000180018001800180018180C1806F00384
:103F90000000000000000000000010001E001800DB
:103FA00018001800180018001800183E180C180601
:103FB000180318019801D801380318071806180CBF
:103FC000181C18187E7C0000000000000000000093
:103FD000000000000000000000000001F801800166
:103FE00080018001800180018001800180018001C9
:103FF00080018001800180018001800180018001B9
:1040000080018001F81F0000000000000000000097
:1040100000000000000000000000000000000000A0
:1040200000000000000000000800EE1C9C338C31F2
:104030008C318C318C318C318C318C318C318C3198
:104040008C318C31DE7B000000000000000000009D
:104050000000000000000000000000000000000060
:10406000000000000000000010001E0FD8183830BB
:104070001830183018301830183018301830183000
:10408000183018307EFC0000000000000000000026
:104090000000000000000000000000000000000020
:1040A00000000000000000000000C007701C10307D
:1040B00018300C600C600C600C600C600C601830E8
:1040C00018303018C0070000000000000000000099
:1040D00000000000000000000000000000000000E0
:1040E000000000000000000010009E0F581838303B
:1040F0001820186018601860186018601860183070
:1041000038307818980718001800180018007E003A
:10411000000000000000000000000000000000009F
:1041200000000000000000000000C023303C1838F0
:1041300018300C300C300C300C300C300C30083097
:104140001838303CE033003000300030003000FCE4
:10415000000000000000000000000000000000005F
:10416000000000000000000060007E3C60666061AE
:10417000E000E0006000600060006000600060003F
:1041800060006000FE07000000000000000000006A
:10419000000000000000000000000000000000001F
:1041A00000000000000000000000E0273038183058
:1041B000182018007000E003800F001C0430043049
:1041C0000C301C18EC0F0000000000000000000084
:1041D00000000000000000000000000000000000DF
:1041E000800080008000C000E000FC1FC000C00014
:1041F000C000C000C000C000C000C000C000C0209F
:10420000C0208011000F000000000000000000002E
:10421000000000000000000000000000000000009E
:10422000000000000000000010201E3C1830183074
:10423000183018301830183018301830183018303E
:10424000183830F4E0130000000000000000000007
:10425000000000000000000000000000000000005E
:10426000000000000000000000007E3C1818180844
:10427000380830043004700260026002E001C001BE
:10428000C001C0008000000000000000000000002D
:10429000000000000000000000000000000000001E
:1042A00000000000000000000000DFF78E630C2318
:1042B0008C238C239813981358165816700E700E72
:1042C000700E200420040000000000000000000028
:1042D00000000000000000000000000000000000DE
:1042E00000000000000000000000FC3E70087004A8
:1042F000E004C002C0018003800340076006200C78
:10430000100C18183E7E00000000000000000000A5
:10431000000000000000000000000000000000009D
:10432000000000000000000000007E7C1818180843
:1043300030083008300460046004C002C002C002CB
:104340008001800180018000800080004C003C00E2
:10435000000000000000000000000000000000005D
:1043600000000000000000000000FC1F0C0C040E08
:104370000406000380038001C000E00070203020AC
:1043800038301C18FC1F0000000000000000000076
:1043900000000000000000300008000400040004D9
:1043A00000040004000400040004000400040002EF
:1043B0008001000200040004000400040004000462
:1043C00000040004000400040004000800300000A1
:1043D00000010001000100010001000100010001D5
:1043E00000010001000100010001000100010001C5
:1043F00000010001000100010001000100010001B5
:1044000000010001000100010001000100010001A4
:104410000000000000000C00100020002000200020
:10442000200020002000200020002000200040006C
:1044300080014000200020002000200020002000FB
:104440002000200020002000200010000C000000B0
:1044500000003800C400864002610022001C0000F9
:10446000000000000000000000000000000000004C
:10447000000000000000000000000000000000003C
:10448000000000000000000000000000000000002C
:10449000D6D08000800080008000FC1F8410841033
:1044A000841084108410FC1F841080008000800021
:1044B0008000BEB0F80F0808F80F0808F80F800059
:1044C000FF7F0000F80F08080808F80F800084102C
:1044D000A2204000D4B00000FE3F0220F2270220BC
:1044E0000220FA2F222122212221122912290A2E0A
:1044F0000220FE3F0220B5E7800080008000FC1F04
:10450000841084108410FC1F841084108410FC1FFD
:10451000845080408040007FD7D30000FE1F0008F9
:104520000004000280018000FF7F80008000800086
:10453000800080008000A0004000D6D00000000075
:10454000000000180000080000080000080008082B
:1045500018F8FF1F1808181808181808181808184D
:10456000180818180818F8FF1F08080800080000A5
:1045700008000008000008000018000018000018DB
:1045800000000000BEB0000000000000400006C0B7
:10459000FF07400006C0FF07400006C0FF074008B5
:1045A00002003000FEFF3F000000C0FF07C0000215
:1045B000C00002C00002C0FF038010008011016033
:1045C000100E3010180C1E30001C00000000D4B07B
:1045D000000000000000080030F8FF1F080010086D
:1045E000C010083F10080010080010080013C8FF92
:1045F0001008221008221008221008221008211288
:1046000008211488601648C013280010080010F80C
:10461000FF1F080010000000B5E7000000000000C8
:10462000001800000800000800000800F0FF0F104C
:104630000804100804100804100804F0FF0710080C
:1046400004100804100804100804F0FF0710080004
:1046500000081000081000082000183000F01F00AB
:104660000000D7D3000000000000000004F0FF0F9E
:1046700000000600000100C0000028000018000033
:104680001800001830FEFF7F001800001800001806
:1046900000001800001800001800001800001800A2
:1046A000001800001F00000C00000000D6D0000021
:1046B0000000000000000080000000800100008079
:1046C00001000080010000800100008001001080D6
:1046D000010CF0FFFF0F30800104308001043080B6
:1046E00001043080010430800104308001043080F6
:1046F000010430800104F0FFFF07308001043080A6
:1047000001040080010000800100008001000080A1
:104710000100008001000080010000800100008095
:104720000100008001000080000000000000BEB019
:1047300000000000000000000000000000018001F7
:1047400000FFFF01000380010003800100FFFF0163
:10475000000380010003800100FFFF010081810050
:10476000000003000000031CFCFFFF3F00004000AE
:104770000003C00100FFFF010003C0000003C000F0
:104780000003C00000FFFF00000141000004010021
:10479000000E710000078101800101076000010E19
:1047A0001898011C04E0011800C00000000000007F
:1047B000D4B0000000000000000000000008F0FF7E
:1047C000FF1F3000000C3000000C3000100C30FED9
:1047D0003F0C3004000C3000000C3000000C3000A6
:1047E000000C3000C00CF0FFFF0D3030060E3030F2
:1047F000060C3010060C3010060C3010060C301869
:10480000860C3018860C3008060D300C860D3006EC
:10481000EE0F3002FC0D3001000CF000000C3000F7
:10482000000CF0FFFF0F3000000C1000000400002F
:104830000000B5E7000000000000000000C000001C
:1048400000C0010000C0000000C0000000C0000067
:1048500000C00000E0FFFF0360C0000360C0000371
:1048600060C0000360C0000360C0000360C00003BC
:10487000E0FFFF0360C0000360C0000360C00003EE
:1048800060C0000360C00003E0FFFF0360C00001E0
:1048900060C0000000C0000800C0001000C0001090
:1048A00000C0001800C001380080FF1F0000000099
:1048B00000000000D7D3000000000000000000004E
:1048C000000000000003C0FFFF0700008007000099
:1048D000C000000060000000180000000C00008014
:1048E00003000080030000800100008001080080B8
:1048F000011CFCFFFF3F00800100008001000080E0
:1049000001000080010000800100008001000080A3
:104910000100008001000080010000800100008093
:1049200001000080010000FC010000E000000040E8
:1049300000000000000002030405060708090A0B36
:104940000C0D0E0F10100102030405060708090ADA
:104950000B0C0D0E0F10000078490008000000201D
:1049600010000000121900088849000810000020FB
:10497000000400002219000800127A000100000063
:0849800010000000000000001F
:040000050800018965
:00000001FF
